:03000000020C7679
:0C0C7600787FE4F6D8FD75812A020CBDE1
:0B0EA9005765696768743D00676D00C5
:100D9700C100C101C102020F0000021600000211CA
:100DA700000002130000010D0001180004190000E3
:020DB70000003A
:100D0200E4F5B0F5A05390EF5380F0120E33120EBB
:100D120018120E677F80120E7D7BFF7A0E79A97DF5
:100D220007120D6B7F8D120E7D7BFF7A0E79B17DDE
:100D320002120D6BC29475C5013000FDC20075C56B
:100D4200803000FDE5085403F50EC200E4F5C5301D
:100D520000FD850815C200D294E50EFE7C00E42554
:090D620015F510EC3EF50F80CBF5
:03004B00020DFCA7
:100DFC00C0E0C0D075D000C007AFC4EF2480700530
:0C0E0C0085C508D200D007D0D0D0E0325D
:03000B00020B29BC
:100B2900C0E0C0F0C083C082C0D075D000C000C092
:100B390001C002C003C004C005C006C007E50D64BA
:100B49000A6003020C47AC13AD14EC1209AB8F1CFD
:100B59008E1B8D1A8C19E4FBFA7920784112090948
:100B69008F1C8E1B8D1A8C197BF67A2879D47840C4
:100B79001208008F1C8E1B8D1A8C191209E48E160F
:100B89008F1774AC2517F51774FF3516F516FEAFD8
:100B9900177C037DE8120AE58F097E007C037DE856
:100BA900120A7EC3E5179FFFE5169EFE7C007D6451
:100BB900120A908F0AAF097E007C037DE8120A7E33
:100BC900C3E5179FFDE5169EFCE50A75F064A4FFD1
:100BD900C3ED9FFFEC95F0FE7C007D0A120A908F11
:100BE9000BE50975F0E8A4FEC3E5179EFFE50A7554
:100BF900F064A4FEC3EF9EFFE50B75F00AA4FEC3E3
:100C0900EF9EF50C74302509F5097430250AF50AAB
:100C19007430250BF50B7430250CF50C7F647E00C0
:100C2900120DC27F88120E7D7B007A0079097D043E
:100C3900120D6B751300751400750D00800EE5100B
:100C49002514F514E50F3513F513050D758C3C7551
:100C59008AB0D007D006D005D004D003D002D00185
:0D0C6900D000D0D0D082D083D0F0D0E032C7
:100E3300D29443C32043C30143C31053C3F743C3F3
:0A0E43000443B104D2AF43C34022C0
:100E6700758C3C758AB0E58954F04401F589D2A99F
:060E7700D28CE4F50D220F
:100E18007F647E00120DC27F38120E7D7F0E120E87
:0B0E28007D7F01120E7D7F80020E7D99
:100E7D008F26120E4D8526A0C280120DBAC2827F1A
:060E8D00057E00020DC20B
:100E93008F2A120E4D852AA0D280120DBAC2827FEC
:060EA300057E00020DC2F5
:100D6B008B268A2789288D29E529D39400401CAB33
:100D7B0026AA27A928120A65FF120E9374012528AB
:0C0D8B00F528E43527F527152980DD2226
:100E4D0075A0FFC280D281C282120DBED28230A7A0
:0A0E5D0006C282D28280F7C2822210
:080DBA00C281D2827F057E0098
:100DC200D3EF9400EE64809480400DE4FD0DBD05E8
:080DD200FCEF1F70EB1E80E82E
:010DDA0022F6
:100DDB00D3EF9400EE648094804015E4FCFD0DBDD0
:100DEB0000010CBC01F8BD7EF5EF1F70E31E80E027
:010DFB0022D5
:10080000EC4D6011E8497017ED33EC3304600DE4F2
:10081000FCFFFEFD22E933E8330470F8020A5012AF
:100820000A1B58046009E4CC2481500628500902B0
:100830000A5A284003020A57C0E0EB4A7044B980C4
:1008400006D0E0FB020A46EF4E701CBD8008EBFFAD
:10085000EAFEE9FD80EBE98DF0A4FEE5F00208E98F
:10086000E9CDF9EAFEEBFFEF89F0A4FCE5F0CE89D3
:10087000F0A42EFFE435F0CD89F0A42DFEE435F090
:100880008067EF4E7005BD80D780C3EF8BF0A4ACBE
:10089000F0EE8BF0A42CFCE435F0F8EF8AF0A42CF9
:1008A000E5F038FCE433CB8DF0A42CFCE5F03BF80C
:1008B000EE8AF0A42CFCE5F038F8E433CF89F0A4FC
:1008C0002CFCE5F038CF3400CE89F0A42FFFE5F002
:1008D0003EFEE433C98DF0A42EFEE5F039CD8AF05A
:1008E000A42FFFE5F03EFEE43DFD33D0E0FB5007D2
:1008F0000BBB000F020A5AEC2CFCEF33FFEE33FE69
:06090000ED33FD020A3296
:10090600020A5AEC5D046005E859047003020A50B5
:10091600120A1B580460F6EC4860F2EC7004FDFE07
:10092600FF22C860DB2481C85009C39860025006C4
:10093600020A579850CAF582E9294B4A7005AB82DC
:10094600020A4675F0007C1A7880C3EF9BEE9AED9A
:1009560099400DC3EF9BFFEE9AFEED99FDE842F03C
:10096600DC23ACF0D0E0FFD0E0FED0E0FDAB82208F
:10097600E7101BEB60BAEC2CFCEF33FFEE33FEED19
:1009860033FD020A32E803F830E705C0F075F000DF
:10099600EF2FFFEE33FEED33FD40B830E7C280AAFD
:1009A60075F020800E75F010800575F0087D007ECC
:1009B600007F003392D530D503120B1BEC33401069
:1009C600EF33FFEE33FEED33FDEC33FCD5F0ED22D5
:0E09D600E5F0247EA2D513CC92E7CDCEFF2211
:1009E400EDD2E7CD33EC3392D524814006E4FFFE0B
:1009F400FDFC22FCE4CFCECDCC24E0501174FF806A
:100A0400EDC3CC13CCCD13CDCE13CECF13CF047006
:070A1400F030D5DE020B1BE0
:100A1B00E9D2E7C933E833F892D5EDD2E7CD33EC21
:070A2B0033FC5002B2D5229A
:100A3200EC30E7100FBF000C0EBE00080DBD000425
:100A42000BEB6014A2D5EB13FCED92E7FD2274FFD1
:100A5200FCFDFEFF22E480F8A2D574FF13FC7D802A
:030A6200E480EF3E
:100C8200020D02E493A3F8E493A34003F68001F279
:100C920008DFF48029E493A3F85407240CC8C33373
:100CA200C4540F4420C8834004F456800146F6DF42
:100CB200E4800B0102040810204080900D97E47E2E
:100CC200019360BCA3FF543F30E509541FFEE49337
:100CD200A360010ECF54C025E060A840B8E493A3FE
:100CE200FAE493A3F8E493A3C8C582C8CAC583CA29
:100CF200F0A3C8C582C8CAC583CADFE9DEE780BEE1
:010DB9000039
:100A6500BB010689828A83E0225002E722BBFE028F
:090A7500E32289828A83E49322C2
:100A7E00EF8DF0A4A8F0CF8CF0A428CE8DF0A42E8C
:020A8E00FE2246
:100A9000BC000BBE0029EF8DF084FFADF022E4CC4A
:100AA000F875F008EF2FFFEE33FEEC33FCEE9DEC13
:100AB000984005FCEE9DFE0FD5F0E9E4CEFD22ED59
:100AC000F8F5F0EE8420D21CFEADF075F008EF2FA3
:100AD000FFED33FD4007985006D5F0F222C398FD94
:050AE0000FD5F0EA2231
:100AE500C2D5EC30E709B2D5E4C39DFDE49CFCEE2C
:100AF50030E715B2D5E4C39FFFE49EFE120A90C30A
:100B0500E49DFDE49CFC8003120A9030D507C3E404
:060B15009FFFE49EFE229A
:0E0B1B00C3E49FFFE49EFEE49DFDE49CFC22EB
:00000001FF
