:03000000020A529F
:0C0A5200787FE4F6D8FD75812A020A992D
:0C0C8500566F6C746167653D006D560091
:100B7300C100C101C102020B000002160000020DF8
:100B8300000002130000010900011800040F000017
:020B9300000060
:100ADE00E4F5B0F5A05390EF5380F0120C0F120B0B
:100AEE00F4120C437F80120C597BFF7A0C79857DB2
:100AFE0008120B477F8E120C597BFF7A0C798E7D74
:100B0E0002120B47C29475C5013000FDC20075C5B7
:100B1E00803000FDE5085403F50AC200E4F5C53047
:100B2E0000FD850815C200D294E50AFE7C00E4257E
:090B3E0015F50CEC3EF50B80CB23
:03004B00020BD8CD
:100BD800C0E0C0D075D000C007AFC4EF2480700556
:0C0BE80085C508D200D007D0D0D0E03284
:03000B00020939AE
:10093900C0E0C0F0C083C082C0D075D000C000C084
:1009490001C002C003C004C005C006C007E50964B0
:100959000A6003020A23AC13AD14EC1208058F12C6
:100969008E118D108C0F12083E8E168F177C037D09
:10097900E81208F58F197E007C037DE812088EC302
:10098900E5179FFFE5169EFE7C007D641208A08F87
:100999001AAF197E007C037DE812088EC3E5179F04
:1009A900FDE5169EFCE51A75F064A4FFC3ED9FFFF3
:1009B900EC95F0FE7C007D0A1208A08F1BE51975E5
:1009C900F0E8A4FEC3E5179EFFE51A75F064A4FEDE
:1009D900C3EF9EFFE51B75F00AA4FEC3EF9EF51C4D
:1009E90074302519F5197430251AF51A7430251B38
:1009F900F51B7430251CF51C7F647E00120B9E7F4D
:100A090089120C597B007A0079197D04120B4775FC
:100A19001300751400750900800EE50C2514F514F2
:100A2900E50B3513F5130509758C3C758AB0D007AC
:100A3900D006D005D004D003D002D001D000D0D048
:090A4900D082D083D0F0D0E0325D
:100C0F00D29443C32043C30143C31053C3F743C319
:0A0C1F000443B104D2AF43C34022E6
:100C4300758C3C758AB0E58954F04401F589D2A9C5
:060C5300D28CE4F5092239
:100BF4007F647E00120B9E7F38120C597F0E120CFC
:0B0C0400597F01120C597F80020C592F
:100C59008F26120C298526A0C280120B96C2827F8C
:060C6900057E00020B9E57
:100C6F008F2A120C29852AA0D280120B96C2827F5E
:060C7F00057E00020B9E41
:100B47008B268A2789288D29E529D39400401CAB59
:100B570026AA27A928120875FF120C6F74012528E9
:0C0B6700F528E43527F527152980DD224C
:100C290075A0FFC280D281C282120B9AD28230A7EC
:0A0C390006C282D28280F7C2822236
:080B9600C281D2827F057E00BE
:100B9E00D3EF9400EE64809480400DE4FD0DBD050E
:080BAE00FCEF1F70EB1E80E854
:010BB600221C
:100BB700D3EF9400EE648094804015E4FCFD0DBDF6
:100BC70000010CBC01F8BD7EF5EF1F70E31E80E04D
:010BD70022FB
:1008000075F020800E75F010800575F0087D007E73
:10081000007F003392D530D50312092BEC33401002
:10082000EF33FFEE33FEED33FDEC33FCD5F0ED227C
:0E083000E5F0247EA2D513CC92E7CDCEFF22B8
:10083E00EDD2E7CD33EC3392D524814006E4FFFEB2
:10084E00FDFC22FCE4CFCECDCC24E0501174FF8011
:10085E00EDC3CC13CCCD13CDCE13CECF13CF0470AE
:07086E00F030D5DE02092B7A
:100A5E00020ADEE493A3F8E493A34003F68001F2C6
:100A6E0008DFF48029E493A3F85407240CC8C33399
:100A7E00C4540F4420C8834004F456800146F6DF68
:100A8E00E4800B0102040810204080900B73E47E7A
:100A9E00019360BCA3FF543F30E509541FFEE4935D
:100AAE00A360010ECF54C025E060A840B8E493A324
:100ABE00FAE493A3F8E493A3C8C582C8CAC583CA4F
:100ACE00F0A3C8C582C8CAC583CADFE9DEE780BE07
:010B9500005F
:10087500BB010689828A83E0225002E722BBFE0281
:09088500E32289828A83E49322B4
:10088E00EF8DF0A4A8F0CF8CF0A428CE8DF0A42E7E
:02089E00FE2238
:1008A000BC000BBE0029EF8DF084FFADF022E4CC3C
:1008B000F875F008EF2FFFEE33FEEC33FCEE9DEC05
:1008C000984005FCEE9DFE0FD5F0E9E4CEFD22ED4B
:1008D000F8F5F0EE8420D21CFEADF075F008EF2F95
:1008E000FFED33FD4007985006D5F0F222C398FD86
:0508F0000FD5F0EA2223
:1008F500C2D5EC30E709B2D5E4C39DFDE49CFCEE1E
:1009050030E715B2D5E4C39FFFE49EFE1208A0C3ED
:10091500E49DFDE49CFC80031208A030D507C3E4E8
:060925009FFFE49EFE228C
:0E092B00C3E49FFFE49EFEE49DFDE49CFC22DD
:00000001FF
