:030000000209836F
:0C098300787FE4F6D8FD7581200209CAD7
:100A7400C100C103C104C105C106C102C101020D07
:0C0A8400000002090000010B00010C0042
:1008CE00E4F5B0F5A043900F5380F0120AAD120A72
:1008DE00C712080030021A200317200414C2A07594
:1008EE00C5703000FDC200E4F5C53000FDC200D277
:1008FE00A020021A200317200414C2A0850BC530B5
:10090E0000FDC200850CC53000FDC200D2A0200340
:10091E00C33004C030010D750CFF750B7FC201E4AE
:10092E00F509F50AC2A0850BC53000FDC200850C85
:10093E00C53000FDC200C3E50A9498E509648094B1
:10094E00BA4012E50A9448E509648094F1500675A0
:10095E000B77750CFFC3E50A9448E509648094F1A2
:10096E004006750B70E4F50C050AE50A70020509E0
:05097E00D2A00208E216
:10080000A2909203A2919204A2929205A2939206C0
:1008100020033420043120050E20060BE4F50DF5ED
:100820000E750B7F750CFF30050F20060C750D0043
:10083000750E01750B7F750CFF3005030208CD2086
:1008400006030208CD8031300336200433C2022073
:10085000050E20060BE4F50DF50E750B7F750CFFEC
:1008600030050F20060C750D00750E01750B7F7598
:100870000CFF200558300655750D00750E02804797
:1008800020033C300439C202D20120050E20060BA1
:10089000E4F50DF50E750B7F750CFF30050F200686
:1008A0000C750D00750E01750B7F750CFF20050F83
:1008B00030060C750D00750E02750B7F750CFF3040
:0E08C000030B300408C202750B7F750CFF227B
:03004B00020A9115
:100A9100C0E0C0D075D000C007AFC4EF248070059E
:0C0AA10085C508D200D007D0D0D0E032CC
:100AAD00D2A043C32043C30143C31043C30843C370
:0A0ABD000443B104D2AF43C340224A
:100AC700758CB1758AE0E58954F04401F589D2A99E
:030AD700D28C229C
:03000B00020A0FD7
:100A0F00C0E020032D20042AB202E50E450D70062A
:100A1F00758CD8758AF0E50E6401450D7006758CDE
:100A2F00EC758A78E50E6402450D7006758CF875C5
:100A3F008A3020032D30042AD201E50E450D7006B1
:100A4F00758CB1758AE0E50E6401450D7006758CE5
:100A5F00D8758AF0E50E6402450D7006758CF07539
:050A6F008A60D0E032B6
:10098F000208CEE493A3F8E493A34003F68001F2A8
:10099F0008DFF48029E493A3F85407240CC8C33369
:1009AF00C4540F4420C8834004F456800146F6DF38
:1009BF00E4800B0102040810204080900A74E47E4A
:1009CF00019360BCA3FF543F30E509541FFEE4932D
:1009DF00A360010ECF54C025E060A840B8E493A3F4
:1009EF00FAE493A3F8E493A3C8C582C8CAC583CA1F
:1009FF00F0A3C8C582C8CAC583CADFE9DEE780BED7
:010A90000065
:00000001FF
