:03000000020225D4
:02000B000C32B5
:10060000D1D37480D1A5D1D3900900D1C5D1D374F1
:10061000C0D1A5D1D3900911D1C5D1D322D1D374E2
:1006200080D1A5D1D3900922D1C5D1D374C0D1A591
:10063000D1D3900933D1C5D1D374C9D1A5D1D3ECCD
:100640001202001206B4E5F01206B4E58C120200A4
:100650001206B4E5F01206B4E58A1202001206B4DE
:10066000E5F01206B4D1D32275A038C280C281D27F
:1006700082D1D3C282D1D375A00CC280C281D28272
:10068000D1D3C282D1D375A001C280C281D282D11E
:10069000D3C282D1D375A006C280C281D282D1D307
:1006A000C282D1D322F5A0C280C281D282D1D3C26C
:1006B00082D1D322F5A0D280C281D282D1D3C2828C
:1006C000D1D3D1D322C0E0E4936005D1B4A380F7A5
:1006D000D0E022C003C0047B017CFFDCFEDBFAD04B
:1006E00004D003227B647CC8D1D3DCFCDBF8227508
:1006F0008C00758A00758901D2AFD2A9D294D28CB0
:0E07000075908FE590540F60F7C28CC28D2269
:10090000505245535320535749544348205357316D
:100910000020204153204C454420474C4F57532042
:1009200020005245414354494F4E2054494D4520E3
:0C093000202000434F554E542049530036
:10020000FA540FFB940A5007EB2430F5F08005EB0D
:100210002437F5F0EA54F0C4FB940A5004EB243080
:1002200022EB24372275A000759000120668120692
:10023000007C001206EF12061D7590A0D1E480EB41
:00000001FF
