:03000000020907EB
:0D000B00C0E0C0D00EA3C28DD0D0D0E03236
:10020000FA540FFB940A5007EB2430F5F08005EB0D
:100210002437F5F0EA54F0C4FB940A5004EB243080
:1002200022EB243722C0E0758A60758CF0D0E02282
:10023000C0E0D28C308DFDC28CE582B4F412E5832F
:10024000B4010DD0E07151758D00758B00D28E22F6
:10025000D0E022710F748051E1710F90090071019B
:10026000710F748551E1710F9009037101710F22B3
:10027000C0E074C051E1710F75900FE590540F51BB
:100280000051F0E5F051F074C451E1710FED5100EF
:1002900051F0E5F051F0EC510051F0E5F051F07102
:1002A0000FD0E02275A038C280C281D282710FC205
:1002B00082710F75A00CC280C281D282710FC2827E
:1002C000710F75A001C280C281D282710FC282718A
:1002D0000F75A006C280C281D282710FC282710FD7
:1002E00022F5A0C280C281D282710FC282710F2218
:1002F000F5A0D280C281D282710FC282710F710FBC
:1003000022C0E0E493600551F0A380F7D0E022C062
:0F03100003C0047B017CFFDCFEDBFAD004D003CA
:10031F0022758D00758B007151D28EF96012759018
:10032F0080D2B7D29651255130D9FAB40F02800E30
:10033F00759000C2B7C29651255130BE0FF97E009D
:10034F0080D9C28EC004C005E58BFCE58DFD5170D0
:10035F00D005D00490000075900F740C540FB29418
:10036F00C389F0B5F0037901224009C3C0E0992990
:07037F00F9D0E02279012210
:10090000494E0052504D001202A474011202E1122D
:0F091000030F120253758951D2AFD2A9120320DF
:00000001FF
