:03000000020900F2
:0B000B00C0E0C0D00EA3D0D0D0E03287
:10020000C0E0C28C74E8F42401F58A7403F434006D
:10021000F58CD28CD0E022C0E0D28CD28D208DFD26
:10022000E582B4F40AE583B40105D0E0515722C257
:100230008DC28CD0E0225157F9600E75908051002C
:100240005117D9FAB40F02800A7590005100511766
:10025000BE0FF97E0080E190000075900FE590548C
:100260000FC389F0B5F0037901224009C3C0E099BA
:0802700029F9D0E022790122F6
:0A090000758901D2AFD2A9120236A8
:00000001FF
