:03000000020231C8
:0A000B00C0E0C0D00CD0D0D0E0322D
:10060000C00578607D0574007C00C0E0E6D0022A59
:100610000850010CDDF4FE75F007EEA4FEC0F07585
:10062000F007ECA4D0022AFCABF0F15A7482F12C52
:10063000F15A90093EF14CF15AF15A74C0F12CF183
:100640005A90094BF14CF15A74C8F12CF15AEB1243
:10065000020012073BE5F012073B12075AEC1202A8
:100660000012073BE5F012073B12075AEE12020098
:1006700012073BE5F012073B12075AD00522D005BE
:1006800022F60822F15A7480F12CF15A900900F1F7
:100690004CF15A74C0F12CF15A900911F14CF15AF5
:1006A00022F15A7480F12CF15A900922F14CF15A3E
:1006B00074C0F12CF15A900933F14CF15A75F021C4
:1006C000ECD181A4C0E0C0F074CAF12CF15AD0E0A2
:1006D00012020012073BE5F012073B12075AD0E066
:1006E00012020012073BE5F012073B12075A22756F
:1006F000A038C280C281D282F15AC282F15A75A05A
:100700000CC280C281D282F15AC282F15A75A00114
:10071000C280C281D282F15AC282F15A75A006C249
:1007200080C281D282F15AC282F15A22F5A0C280DF
:02073000C28184
:10073200D282F15AC282F15A22F5A0D280C281D26B
:1007420082F15AC282F15AF15A22C0E0E493600562
:10075200F13BA380F7D0E022C003C0047B017CFF01
:10076200DCFEDBFAD004D00322C003C0047B647C2D
:10077200C8F15ADCFCDBF8D004D00322C0E0758C4F
:1007820000758A00758901D2AFD2A9D294D28C7534
:0D079200908FE590540F60F7C28CD0E022EC
:10090000505245535320535749544348205357316D
:100910000020204153204C454420474C4F57532042
:1009200020005245414354494F4E2054494D4520E3
:10093000202000434F554E5420495320200041565B
:1009400045524147452054494D4500696E206D731D
:0409500065632000BB
:10020000C002C003FA540FFB940A5007EB2430F5E8
:10021000F08005EB2437F5F0EA54F0C4FB940A5063
:1002200008EB2430D003D00222EB2437D003D002D5
:100230002275A0007590007D0578601206EF120609
:10024000847C0012077E1206A17590A0F16BDDEB95
:04025000D10080FE5B
:00000001FF
