:100000000201B5C002C003FA540FFB940A5007EB7B
:100010002430F5F08005EB2437F5F0EA54F0C4FB0A
:10002000940A5008EB2430D003D00222EB2437D0BE
:1000300003D0022275900FE590540FC4C0E0C0E0D9
:1000400075900F1201AA75900FE590540FC4D0015E
:10005000C399B40003D0E022D0E080D8C001C00230
:10006000C0E075A00075900031993199313C31990B
:1000700031993199F87A007C0875F081E8C3948051
:100080005480B4002AE5F0C0F0120179C0608860A5
:10009000A960E7D060120003120188E5F012018820
:1000A000081CD0F0E5F02402F5F0DCD00200D1E528
:1000B000F0C0F0120179E6120003120188E5F01297
:1000C0000188081CD0F0E5F02402F5F0DCAE020057
:1000D000D17C0875F0C1E8C394805480B4002BE54E
:1000E000F0C0F0120179C0608860A960E7D06012AA
:1000F0000003120188E5F0120188081CD0F0E5F039
:100100002402F5F0DCD00A02012FE5F0C0F0120164
:1001100079E6120003120188E5F0120188081CD06C
:07012000F0E5F02402F5F008
:10012700DCAD0A02012F01771201AABA02F8D0E06A
:10013700D002D0012275A038C280C281D282319903
:10014700C282319975A00CC280C281D2823199C214
:1001570082319975A001C280C281D2823199C2824F
:10016700319975A006C280C281D2823199C282318B
:100177009922F5A0C280C281D2823199C282319977
:1001870022F5A0D280C281D2823199C282319931BF
:100197009922C003C0047B017CFFDCFEDBFAD0049C
:1001A700D003227B647CC83199DCFCDBF822759094
:1001B700A01201AA789079107401F60804D9FB12ED
:0701C700003412005C80E728
:00000001FF
