:0300000002031ADE
:10020000C00075A000759000519F519F512F519FC4
:10021000519F519F7481516C519F900300518C519B
:100220009F74C2516C519F78815196D00080FE75A9
:10023000A038C280C281D282519FC282519F75A0D4
:100240000CC280C281D282519FC282519F75A0018F
:10025000C280C281D282519FC282519F75A006C2C4
:1002600080C281D282519FC282519F22F5A0C2805A
:10027000C281D282519FC282519F22F5A0D280C2F8
:1002800081D282519FC282519F519F22E493600587
:10029000517BA380F722E66005517B0880F8227B22
:0802A000017CFFDCFEDBFA2209
:100300004545333337202D204C616234004E6176F1
:100310006A6F742053696E6768007881764E08763C
:100320006108767608766A08766F08767408762013
:1003300008765308766908766E0876670876680846
:0503400076001202002E
:00000001FF
