:100000000201B2C002C003FA540FFB94095007EB7F
:100010002430F5F08005EB2437F5F0EA54F0C4FB0A
:1000200094095008EB2430D003D00222EB2437D0BF
:1000300003D0022275900FE590540FC4C0E0C0E0D9
:1000400075900F1201A775900FE590540FC4D00161
:10005000C399B40003D0E022D0E0020034C001C054
:1000600002C0E075A00075900031963196313931AB
:100070009631963196F87A007C0875F081E8C39441
:10008000805480B40026E5F0C0F01201768860A9A3
:1000900060E7120003120185E5F0120185081CD00B
:1000A000F0E5F02402F5F0DCD40200CEE5F0C0F07B
:1000B000120176E6120003120185E5F012018508AF
:1000C0001CD0F0E5F02402F5F0DCB20200CE7C0892
:1000D00075F0C1E8C394805480B4002BE5F0C0F003
:1000E000120176C0608860A960D060E71200031238
:1000F0000185E5F0120185081CD0F0E5F02402F539
:10010000F0DCD00A02012CE5F0C0F0120176E61214
:100110000003120185E5F0120185081CD0F0E5F01E
:070120002402F5F0DCAD0A3A
:1001270002012C01781201A7BA02F8D0E0D002D060
:10013700012275A038C280C281D2823196C2823133
:100147009675A00CC280C281D2823196C282319646
:1001570075A001C280C281D2823196C28231967562
:10016700A006C280C281D2823196C282319622F520
:10017700A0C280C281D2823196C282319622F5A076
:10018700D280C281D2823196C2823196319622C004
:1001970003C0047B017CFFDCFEDBFAD004D0032222
:1001A7007B647CC83196DCFCDBF8227590A01201D9
:1001B700A7789079107401F60804D9FB120034125D
:0401C700005D80E770
:00000001FF
