:0300000002091BD7
:10020000FA540FFB940A5007EB2430F5F08005EB0D
:100210002437F5F0EA54F0C4FB940A5004EB243080
:1002200022EB243722C00075A00075900071227166
:100230002251A3712271227122748151E0712290A6
:10024000090071007122748851E071227881710E69
:10025000712274C151E071229009077100712274FA
:10026000C751E071227885710E712271337481510A
:10027000E0712290090D71007122748851E07122A1
:100280007890710E712274C151E07122900914713D
:1002900000712274C751E071227895710E7122D0DD
:1002A0000080FE75A038C280C281D2827122C282D3
:1002B000712275A00CC280C281D2827122C2827169
:1002C0002275A001C280C281D2827122C2827122B3
:1002D00075A006C280C281D2827122C2827122229E
:1002E000F5A0C280C281D2827122C282712222F51F
:1002F000A0D280C281D2827122C282712271222256
:10030000C0E0E493600551EFA380F7D0E022C0E0A5
:10031000E6600C12020051EFE5F051EF0880F1D0D9
:01032000E0FC
:1003210022C003C0047B017CFFDCFEDBFAD004D0D9
:0D03310003227B647CC87122DCFCDBF82217
:1009000041425053573D00523031323D0020523366
:1009100034353D0052363753503D00740175F002B6
:10092000780379047A057B067C077D087E097F0AB7
:10093000120936120225C0E0C000C0007881F60816
:10094000E5F0F608D3E5D0F60876007885D0E0F635
:1009500008E9F608EAF60876007890EBF608ECF677
:1009600008EDF60876007895EEF608EFF608E581D2
:09097000F6087600D000D0E02268
:00000001FF
