:10000000020125C004C001C002C003C0E0AC4F7BA8
:100010000A7AC879FFD9FEDAFADBF6DCF2D0E0D052
:1000200003D002D001D00422C0E0C04F7590F0751B
:100030004F0A12000375900075900FE590540F75EC
:100040004F02120003F54EC4F590754F0A120003DB
:1000500075900075900FE590B400CDD04FD0E022A0
:10006000C0E0C000120028E54EC4120028A84E28A7
:10007000F54FD000D0E022C000C001A850A9511215
:100080000060A74F09D8F8D001D00022C000C001FD
:10009000C0E0C04FA850A95175900FE590540FC013
:1000A000E0C3985480B48029D0E02914F9E7C0E077
:1000B00054F0F590754F04120003D0E0540FC4F5CE
:1000C00090754F04120003D04FD0E0D001D00080D3
:1000D000BBD0E0C398600C759050D04FD0E0D001F9
:1000E000D0002275900FE590540F1200AAC000C0F6
:1000F00001C002C0F0C0E0AA50A951A8518552F039
:10010000C001E92550F9E6F7D00108E667C000A86C
:10011000F0F6D000080905F0DAF1D0E0D0F0D00216
:08012000D001D000227581CF4F
:10012800755003755160754F00120077755003754F
:1001380051607552701200ED7550037551707590CD
:0C014800A0754F0612000312008C80FE10
:00000001FF
